{
  "contractName": "subcontract",
  "abi": [
    {
      "constant": true,
      "inputs": [
        {
          "internalType": "uint256",
          "name": "",
          "type": "uint256"
        }
      ],
      "name": "payments",
      "outputs": [
        {
          "internalType": "uint64",
          "name": "contract_num",
          "type": "uint64"
        },
        {
          "internalType": "uint8",
          "name": "state",
          "type": "uint8"
        },
        {
          "internalType": "string",
          "name": "total_cost",
          "type": "string"
        },
        {
          "internalType": "uint128",
          "name": "ready_made_cost",
          "type": "uint128"
        },
        {
          "internalType": "uint128",
          "name": "labor_cost",
          "type": "uint128"
        },
        {
          "internalType": "uint128",
          "name": "exception_cost",
          "type": "uint128"
        },
        {
          "internalType": "string",
          "name": "etc",
          "type": "string"
        }
      ],
      "payable": false,
      "stateMutability": "view",
      "type": "function"
    },
    {
      "constant": false,
      "inputs": [
        {
          "internalType": "uint64",
          "name": "_contract_num",
          "type": "uint64"
        },
        {
          "internalType": "string",
          "name": "_contract_info",
          "type": "string"
        },
        {
          "internalType": "string",
          "name": "_total_cost",
          "type": "string"
        }
      ],
      "name": "enroll_contract",
      "outputs": [],
      "payable": false,
      "stateMutability": "nonpayable",
      "type": "function"
    },
    {
      "constant": false,
      "inputs": [
        {
          "internalType": "uint64",
          "name": "_contract_num",
          "type": "uint64"
        }
      ],
      "name": "sign_contract",
      "outputs": [],
      "payable": false,
      "stateMutability": "nonpayable",
      "type": "function"
    },
    {
      "constant": false,
      "inputs": [
        {
          "internalType": "uint64",
          "name": "_contract_num",
          "type": "uint64"
        }
      ],
      "name": "refuse_contract",
      "outputs": [],
      "payable": false,
      "stateMutability": "nonpayable",
      "type": "function"
    },
    {
      "constant": false,
      "inputs": [
        {
          "internalType": "uint64",
          "name": "_contract_num",
          "type": "uint64"
        }
      ],
      "name": "confirm_contract",
      "outputs": [],
      "payable": false,
      "stateMutability": "nonpayable",
      "type": "function"
    },
    {
      "constant": true,
      "inputs": [
        {
          "internalType": "uint64",
          "name": "_contract_num",
          "type": "uint64"
        }
      ],
      "name": "view_contract",
      "outputs": [
        {
          "internalType": "string",
          "name": "",
          "type": "string"
        },
        {
          "internalType": "uint8",
          "name": "",
          "type": "uint8"
        },
        {
          "internalType": "address",
          "name": "",
          "type": "address"
        },
        {
          "internalType": "address",
          "name": "",
          "type": "address"
        }
      ],
      "payable": false,
      "stateMutability": "view",
      "type": "function"
    },
    {
      "constant": false,
      "inputs": [
        {
          "internalType": "uint64",
          "name": "_contract_num",
          "type": "uint64"
        },
        {
          "internalType": "uint128",
          "name": "_ready_made_cost",
          "type": "uint128"
        },
        {
          "internalType": "uint128",
          "name": "_labor_cost",
          "type": "uint128"
        },
        {
          "internalType": "uint128",
          "name": "_exception_cost",
          "type": "uint128"
        },
        {
          "internalType": "string",
          "name": "_etc",
          "type": "string"
        }
      ],
      "name": "request_payment",
      "outputs": [],
      "payable": false,
      "stateMutability": "nonpayable",
      "type": "function"
    },
    {
      "constant": false,
      "inputs": [
        {
          "internalType": "uint64",
          "name": "_contract_num",
          "type": "uint64"
        },
        {
          "internalType": "uint128",
          "name": "_ready_made_cost",
          "type": "uint128"
        },
        {
          "internalType": "uint128",
          "name": "_labor_cost",
          "type": "uint128"
        },
        {
          "internalType": "uint128",
          "name": "_exception_cost",
          "type": "uint128"
        },
        {
          "internalType": "string",
          "name": "_etc",
          "type": "string"
        }
      ],
      "name": "payment",
      "outputs": [],
      "payable": false,
      "stateMutability": "nonpayable",
      "type": "function"
    },
    {
      "constant": false,
      "inputs": [
        {
          "internalType": "uint64",
          "name": "_contract_num",
          "type": "uint64"
        },
        {
          "internalType": "uint128",
          "name": "_ready_made_cost",
          "type": "uint128"
        },
        {
          "internalType": "uint128",
          "name": "_labor_cost",
          "type": "uint128"
        },
        {
          "internalType": "uint128",
          "name": "_exception_cost",
          "type": "uint128"
        },
        {
          "internalType": "string",
          "name": "_etc",
          "type": "string"
        }
      ],
      "name": "confirm_payment",
      "outputs": [],
      "payable": false,
      "stateMutability": "nonpayable",
      "type": "function"
    },
    {
      "constant": false,
      "inputs": [
        {
          "internalType": "uint64",
          "name": "_contract_num",
          "type": "uint64"
        },
        {
          "internalType": "uint128",
          "name": "_ready_made_cost",
          "type": "uint128"
        },
        {
          "internalType": "uint128",
          "name": "_labor_cost",
          "type": "uint128"
        },
        {
          "internalType": "uint128",
          "name": "_exception_cost",
          "type": "uint128"
        },
        {
          "internalType": "string",
          "name": "_etc",
          "type": "string"
        }
      ],
      "name": "refuse_payment",
      "outputs": [],
      "payable": false,
      "stateMutability": "nonpayable",
      "type": "function"
    },
    {
      "constant": true,
      "inputs": [],
      "name": "view_count",
      "outputs": [
        {
          "internalType": "uint256",
          "name": "",
          "type": "uint256"
        }
      ],
      "payable": false,
      "stateMutability": "view",
      "type": "function"
    },
    {
      "constant": true,
      "inputs": [
        {
          "internalType": "uint256",
          "name": "_index",
          "type": "uint256"
        }
      ],
      "name": "view_payment",
      "outputs": [
        {
          "internalType": "uint64",
          "name": "",
          "type": "uint64"
        },
        {
          "internalType": "uint8",
          "name": "",
          "type": "uint8"
        },
        {
          "internalType": "string",
          "name": "",
          "type": "string"
        },
        {
          "internalType": "uint128",
          "name": "",
          "type": "uint128"
        },
        {
          "internalType": "uint128",
          "name": "",
          "type": "uint128"
        },
        {
          "internalType": "uint128",
          "name": "",
          "type": "uint128"
        }
      ],
      "payable": false,
      "stateMutability": "view",
      "type": "function"
    },
    {
      "constant": true,
      "inputs": [
        {
          "internalType": "uint64",
          "name": "_contract_num",
          "type": "uint64"
        }
      ],
      "name": "view_payments",
      "outputs": [
        {
          "internalType": "string",
          "name": "",
          "type": "string"
        },
        {
          "internalType": "uint8",
          "name": "",
          "type": "uint8"
        },
        {
          "internalType": "address",
          "name": "",
          "type": "address"
        },
        {
          "internalType": "address",
          "name": "",
          "type": "address"
        },
        {
          "internalType": "uint8",
          "name": "",
          "type": "uint8"
        }
      ],
      "payable": false,
      "stateMutability": "view",
      "type": "function"
    },
    {
      "constant": true,
      "inputs": [
        {
          "internalType": "uint64",
          "name": "_contract_num",
          "type": "uint64"
        }
      ],
      "name": "view_payment_state",
      "outputs": [
        {
          "internalType": "string",
          "name": "",
          "type": "string"
        },
        {
          "internalType": "uint128",
          "name": "",
          "type": "uint128"
        },
        {
          "internalType": "uint128",
          "name": "",
          "type": "uint128"
        },
        {
          "internalType": "uint128",
          "name": "",
          "type": "uint128"
        },
        {
          "internalType": "uint8",
          "name": "",
          "type": "uint8"
        },
        {
          "internalType": "string",
          "name": "",
          "type": "string"
        }
      ],
      "payable": false,
      "stateMutability": "view",
      "type": "function"
    }
  ],
  "bytecode": "0x608060405234801561001057600080fd5b50612f76806100206000396000f3fe608060405234801561001057600080fd5b50600436106100ea5760003560e01c80638840abb31161008c578063ba5532ad11610066578063ba5532ad14610bfd578063c20c8f0714610d20578063db3e0a7714610e43578063f9f9846c14610e7b576100ea565b80638840abb3146108f6578063944c9c5a1461092e578063a577b33e14610ad9576100ea565b80635152851b116100c85780635152851b1461038057806371d7bd4e146104a357806386daa05b1461060957806387d817891461073a576100ea565b8063119625e6146100ef57806324ae771e1461023f57806339c614a114610362575b600080fd5b61011b6004803603602081101561010557600080fd5b8101908080359060200190929190505050610eb3565b604051808767ffffffffffffffff1667ffffffffffffffff1681526020018660ff1660ff16815260200180602001856fffffffffffffffffffffffffffffffff166fffffffffffffffffffffffffffffffff168152602001846fffffffffffffffffffffffffffffffff166fffffffffffffffffffffffffffffffff168152602001836fffffffffffffffffffffffffffffffff166fffffffffffffffffffffffffffffffff168152602001828103825286818151815260200191508051906020019080838360005b838110156101ff5780820151818401526020810190506101e4565b50505050905090810190601f16801561022c5780820380516001836020036101000a031916815260200191505b5097505050505050505060405180910390f35b610360600480360360a081101561025557600080fd5b81019080803567ffffffffffffffff16906020019092919080356fffffffffffffffffffffffffffffffff16906020019092919080356fffffffffffffffffffffffffffffffff16906020019092919080356fffffffffffffffffffffffffffffffff169060200190929190803590602001906401000000008111156102da57600080fd5b8201836020820111156102ec57600080fd5b8035906020019184600183028401116401000000008311171561030e57600080fd5b91908080601f016020809104026020016040519081016040528093929190818152602001838380828437600081840152601f19601f82011690508083019250505050505050919291929050505061109c565b005b61036a611621565b6040518082815260200191505060405180910390f35b6104a1600480360360a081101561039657600080fd5b81019080803567ffffffffffffffff16906020019092919080356fffffffffffffffffffffffffffffffff16906020019092919080356fffffffffffffffffffffffffffffffff16906020019092919080356fffffffffffffffffffffffffffffffff1690602001909291908035906020019064010000000081111561041b57600080fd5b82018360208201111561042d57600080fd5b8035906020019184600183028401116401000000008311171561044f57600080fd5b91908080601f016020809104026020016040519081016040528093929190818152602001838380828437600081840152601f19601f82011690508083019250505050505050919291929050505061162e565b005b610607600480360360608110156104b957600080fd5b81019080803567ffffffffffffffff169060200190929190803590602001906401000000008111156104ea57600080fd5b8201836020820111156104fc57600080fd5b8035906020019184600183028401116401000000008311171561051e57600080fd5b91908080601f016020809104026020016040519081016040528093929190818152602001838380828437600081840152601f19601f8201169050808301925050505050505091929192908035906020019064010000000081111561058157600080fd5b82018360208201111561059357600080fd5b803590602001918460018302840111640100000000831117156105b557600080fd5b91908080601f016020809104026020016040519081016040528093929190818152602001838380828437600081840152601f19601f820116905080830192505050505050509192919290505050611a01565b005b61063f6004803603602081101561061f57600080fd5b81019080803567ffffffffffffffff169060200190929190505050611ac8565b60405180806020018660ff1660ff1681526020018573ffffffffffffffffffffffffffffffffffffffff1673ffffffffffffffffffffffffffffffffffffffff1681526020018473ffffffffffffffffffffffffffffffffffffffff1673ffffffffffffffffffffffffffffffffffffffff1681526020018360ff1660ff168152602001828103825287818151815260200191508051906020019080838360005b838110156106fb5780820151818401526020810190506106e0565b50505050905090810190601f1680156107285780820380516001836020036101000a031916815260200191505b50965050505050505060405180910390f35b6107666004803603602081101561075057600080fd5b8101908080359060200190929190505050611cc6565b604051808867ffffffffffffffff1667ffffffffffffffff1681526020018760ff1660ff16815260200180602001866fffffffffffffffffffffffffffffffff166fffffffffffffffffffffffffffffffff168152602001856fffffffffffffffffffffffffffffffff166fffffffffffffffffffffffffffffffff168152602001846fffffffffffffffffffffffffffffffff166fffffffffffffffffffffffffffffffff16815260200180602001838103835288818151815260200191508051906020019080838360005b8381101561084e578082015181840152602081019050610833565b50505050905090810190601f16801561087b5780820380516001836020036101000a031916815260200191505b50838103825284818151815260200191508051906020019080838360005b838110156108b4578082015181840152602081019050610899565b50505050905090810190601f1680156108e15780820380516001836020036101000a031916815260200191505b50995050505050505050505060405180910390f35b61092c6004803603602081101561090c57600080fd5b81019080803567ffffffffffffffff169060200190929190505050611eba565b005b6109646004803603602081101561094457600080fd5b81019080803567ffffffffffffffff169060200190929190505050611ff6565b6040518080602001876fffffffffffffffffffffffffffffffff166fffffffffffffffffffffffffffffffff168152602001866fffffffffffffffffffffffffffffffff166fffffffffffffffffffffffffffffffff168152602001856fffffffffffffffffffffffffffffffff166fffffffffffffffffffffffffffffffff1681526020018460ff1660ff16815260200180602001838103835289818151815260200191508051906020019080838360005b83811015610a32578082015181840152602081019050610a17565b50505050905090810190601f168015610a5f5780820380516001836020036101000a031916815260200191505b50838103825284818151815260200191508051906020019080838360005b83811015610a98578082015181840152602081019050610a7d565b50505050905090810190601f168015610ac55780820380516001836020036101000a031916815260200191505b509850505050505050505060405180910390f35b610b0f60048036036020811015610aef57600080fd5b81019080803567ffffffffffffffff1690602001909291905050506122cb565b60405180806020018560ff1660ff1681526020018473ffffffffffffffffffffffffffffffffffffffff1673ffffffffffffffffffffffffffffffffffffffff1681526020018373ffffffffffffffffffffffffffffffffffffffff1673ffffffffffffffffffffffffffffffffffffffff168152602001828103825286818151815260200191508051906020019080838360005b83811015610bbf578082015181840152602081019050610ba4565b50505050905090810190601f168015610bec5780820380516001836020036101000a031916815260200191505b509550505050505060405180910390f35b610d1e600480360360a0811015610c1357600080fd5b81019080803567ffffffffffffffff16906020019092919080356fffffffffffffffffffffffffffffffff16906020019092919080356fffffffffffffffffffffffffffffffff16906020019092919080356fffffffffffffffffffffffffffffffff16906020019092919080359060200190640100000000811115610c9857600080fd5b820183602082011115610caa57600080fd5b80359060200191846001830284011164010000000083111715610ccc57600080fd5b91908080601f016020809104026020016040519081016040528093929190818152602001838380828437600081840152601f19601f820116905080830192505050505050509192919290505050612486565b005b610e41600480360360a0811015610d3657600080fd5b81019080803567ffffffffffffffff16906020019092919080356fffffffffffffffffffffffffffffffff16906020019092919080356fffffffffffffffffffffffffffffffff16906020019092919080356fffffffffffffffffffffffffffffffff16906020019092919080359060200190640100000000811115610dbb57600080fd5b820183602082011115610dcd57600080fd5b80359060200191846001830284011164010000000083111715610def57600080fd5b91908080601f016020809104026020016040519081016040528093929190818152602001838380828437600081840152601f19601f820116905080830192505050505050509192919290505050612859565b005b610e7960048036036020811015610e5957600080fd5b81019080803567ffffffffffffffff169060200190929190505050612c2c565b005b610eb160048036036020811015610e9157600080fd5b81019080803567ffffffffffffffff169060200190929190505050612ce0565b005b6000806060600080600060028781548110610eca57fe5b906000526020600020906005020160000160009054906101000a900467ffffffffffffffff1660028881548110610efd57fe5b906000526020600020906005020160000160089054906101000a900460ff1660028981548110610f2957fe5b906000526020600020906005020160010160028a81548110610f4757fe5b906000526020600020906005020160020160009054906101000a90046fffffffffffffffffffffffffffffffff1660028b81548110610f8257fe5b906000526020600020906005020160020160109054906101000a90046fffffffffffffffffffffffffffffffff1660028c81548110610fbd57fe5b906000526020600020906005020160030160009054906101000a90046fffffffffffffffffffffffffffffffff16838054600181600116156101000203166002900480601f0160208091040260200160405190810160405280929190818152602001828054600181600116156101000203166002900480156110805780601f1061105557610100808354040283529160200191611080565b820191906000526020600020905b81548152906001019060200180831161106357829003601f168201915b5050505050935095509550955095509550955091939550919395565b60026000808767ffffffffffffffff1667ffffffffffffffff16815260200190815260200160002060020160009054906101000a900460ff1660ff16146110e257600080fd5b600033905060008060008867ffffffffffffffff1667ffffffffffffffff16815260200190815260200160002060030160009054906101000a900473ffffffffffffffffffffffffffffffffffffffff16905060606000808967ffffffffffffffff1667ffffffffffffffff1681526020019081526020016000206001018054600181600116156101000203166002900480601f0160208091040260200160405190810160405280929190818152602001828054600181600116156101000203166002900480156111f45780601f106111c9576101008083540402835291602001916111f4565b820191906000526020600020905b8154815290600101906020018083116111d757829003601f168201915b505050505090508173ffffffffffffffffffffffffffffffffffffffff168373ffffffffffffffffffffffffffffffffffffffff161461123357600080fd5b87600160008a67ffffffffffffffff1667ffffffffffffffff16815260200190815260200160002060000160006101000a81548167ffffffffffffffff021916908367ffffffffffffffff16021790555086600160008a67ffffffffffffffff1667ffffffffffffffff16815260200190815260200160002060020160006101000a8154816fffffffffffffffffffffffffffffffff02191690836fffffffffffffffffffffffffffffffff16021790555085600160008a67ffffffffffffffff1667ffffffffffffffff16815260200190815260200160002060020160106101000a8154816fffffffffffffffffffffffffffffffff02191690836fffffffffffffffffffffffffffffffff16021790555084600160008a67ffffffffffffffff1667ffffffffffffffff16815260200190815260200160002060030160006101000a8154816fffffffffffffffffffffffffffffffff02191690836fffffffffffffffffffffffffffffffff16021790555060018060008a67ffffffffffffffff1667ffffffffffffffff16815260200190815260200160002060000160086101000a81548160ff021916908360ff16021790555083600160008a67ffffffffffffffff1667ffffffffffffffff1681526020019081526020016000206004019080519060200190611428929190612e1c565b5060026040518060e001604052808a67ffffffffffffffff168152602001600160ff168152602001838152602001896fffffffffffffffffffffffffffffffff168152602001886fffffffffffffffffffffffffffffffff168152602001876fffffffffffffffffffffffffffffffff168152602001868152509080600181540180825580915050906001820390600052602060002090600502016000909192909190915060008201518160000160006101000a81548167ffffffffffffffff021916908367ffffffffffffffff16021790555060208201518160000160086101000a81548160ff021916908360ff1602179055506040820151816001019080519060200190611539929190612e9c565b5060608201518160020160006101000a8154816fffffffffffffffffffffffffffffffff02191690836fffffffffffffffffffffffffffffffff16021790555060808201518160020160106101000a8154816fffffffffffffffffffffffffffffffff02191690836fffffffffffffffffffffffffffffffff16021790555060a08201518160030160006101000a8154816fffffffffffffffffffffffffffffffff02191690836fffffffffffffffffffffffffffffffff16021790555060c0820151816004019080519060200190611613929190612e9c565b505050505050505050505050565b6000600280549050905090565b60026000808767ffffffffffffffff1667ffffffffffffffff16815260200190815260200160002060020160009054906101000a900460ff1660ff161461167457600080fd5b600033905060008060008867ffffffffffffffff1667ffffffffffffffff16815260200190815260200160002060020160019054906101000a900473ffffffffffffffffffffffffffffffffffffffff16905060606000808967ffffffffffffffff1667ffffffffffffffff1681526020019081526020016000206001018054600181600116156101000203166002900480601f0160208091040260200160405190810160405280929190818152602001828054600181600116156101000203166002900480156117865780601f1061175b57610100808354040283529160200191611786565b820191906000526020600020905b81548152906001019060200180831161176957829003601f168201915b505050505090508173ffffffffffffffffffffffffffffffffffffffff168373ffffffffffffffffffffffffffffffffffffffff16146117c557600080fd5b6002600160008a67ffffffffffffffff1667ffffffffffffffff16815260200190815260200160002060000160086101000a81548160ff021916908360ff16021790555060026040518060e001604052808a67ffffffffffffffff168152602001600260ff168152602001838152602001896fffffffffffffffffffffffffffffffff168152602001886fffffffffffffffffffffffffffffffff168152602001876fffffffffffffffffffffffffffffffff168152602001868152509080600181540180825580915050906001820390600052602060002090600502016000909192909190915060008201518160000160006101000a81548167ffffffffffffffff021916908367ffffffffffffffff16021790555060208201518160000160086101000a81548160ff021916908360ff1602179055506040820151816001019080519060200190611919929190612e9c565b5060608201518160020160006101000a8154816fffffffffffffffffffffffffffffffff02191690836fffffffffffffffffffffffffffffffff16021790555060808201518160020160106101000a8154816fffffffffffffffffffffffffffffffff02191690836fffffffffffffffffffffffffffffffff16021790555060a08201518160030160006101000a8154816fffffffffffffffffffffffffffffffff02191690836fffffffffffffffffffffffffffffffff16021790555060c08201518160040190805190602001906119f3929190612e9c565b505050505050505050505050565b60008060008567ffffffffffffffff1667ffffffffffffffff16815260200190815260200160002060020160009054906101000a900460ff1660ff1614611a4757600080fd5b816000808567ffffffffffffffff1667ffffffffffffffff1681526020019081526020016000206000019080519060200190611a84929190612e1c565b50806000808567ffffffffffffffff1667ffffffffffffffff1681526020019081526020016000206001019080519060200190611ac2929190612e1c565b50505050565b606060008060008060606000808867ffffffffffffffff1667ffffffffffffffff1681526020019081526020016000206000018054600181600116156101000203166002900480601f016020809104026020016040519081016040528092919081815260200182805460018160011615610100020316600290048015611b8f5780601f10611b6457610100808354040283529160200191611b8f565b820191906000526020600020905b815481529060010190602001808311611b7257829003601f168201915b5050505050905060008060008967ffffffffffffffff1667ffffffffffffffff16815260200190815260200160002060020160009054906101000a900460ff16905060008060008a67ffffffffffffffff1667ffffffffffffffff16815260200190815260200160002060020160019054906101000a900473ffffffffffffffffffffffffffffffffffffffff16905060008060008b67ffffffffffffffff1667ffffffffffffffff16815260200190815260200160002060030160009054906101000a900473ffffffffffffffffffffffffffffffffffffffff1690506000600160008c67ffffffffffffffff1667ffffffffffffffff16815260200190815260200160002060000160089054906101000a900460ff169050848484848499509950995099509950505050505091939590929450565b60028181548110611cd357fe5b90600052602060002090600502016000915090508060000160009054906101000a900467ffffffffffffffff16908060000160089054906101000a900460ff1690806001018054600181600116156101000203166002900480601f016020809104026020016040519081016040528092919081815260200182805460018160011615610100020316600290048015611dac5780601f10611d8157610100808354040283529160200191611dac565b820191906000526020600020905b815481529060010190602001808311611d8f57829003601f168201915b5050505050908060020160009054906101000a90046fffffffffffffffffffffffffffffffff16908060020160109054906101000a90046fffffffffffffffffffffffffffffffff16908060030160009054906101000a90046fffffffffffffffffffffffffffffffff1690806004018054600181600116156101000203166002900480601f016020809104026020016040519081016040528092919081815260200182805460018160011615610100020316600290048015611eb05780601f10611e8557610100808354040283529160200191611eb0565b820191906000526020600020905b815481529060010190602001808311611e9357829003601f168201915b5050505050905087565b60008060008367ffffffffffffffff1667ffffffffffffffff16815260200190815260200160002060030160009054906101000a900473ffffffffffffffffffffffffffffffffffffffff1690506000339050600073ffffffffffffffffffffffffffffffffffffffff168273ffffffffffffffffffffffffffffffffffffffff1614611f4657600080fd5b806000808567ffffffffffffffff1667ffffffffffffffff16815260200190815260200160002060030160006101000a81548173ffffffffffffffffffffffffffffffffffffffff021916908373ffffffffffffffffffffffffffffffffffffffff16021790555060016000808567ffffffffffffffff1667ffffffffffffffff16815260200190815260200160002060020160006101000a81548160ff021916908360ff160217905550505050565b6060600080600080606080600160008967ffffffffffffffff1667ffffffffffffffff1681526020019081526020016000206001018054600181600116156101000203166002900480601f0160208091040260200160405190810160405280929190818152602001828054600181600116156101000203166002900480156120bf5780601f10612094576101008083540402835291602001916120bf565b820191906000526020600020905b8154815290600101906020018083116120a257829003601f168201915b505050505090506000600160008a67ffffffffffffffff1667ffffffffffffffff16815260200190815260200160002060020160009054906101000a90046fffffffffffffffffffffffffffffffff1690506000600160008b67ffffffffffffffff1667ffffffffffffffff16815260200190815260200160002060020160109054906101000a90046fffffffffffffffffffffffffffffffff1690506000600160008c67ffffffffffffffff1667ffffffffffffffff16815260200190815260200160002060030160009054906101000a90046fffffffffffffffffffffffffffffffff1690506000600160008d67ffffffffffffffff1667ffffffffffffffff16815260200190815260200160002060000160089054906101000a900460ff1690506060600160008e67ffffffffffffffff1667ffffffffffffffff1681526020019081526020016000206004018054600181600116156101000203166002900480601f0160208091040260200160405190810160405280929190818152602001828054600181600116156101000203166002900480156122a35780601f10612278576101008083540402835291602001916122a3565b820191906000526020600020905b81548152906001019060200180831161228657829003601f168201915b505050505090508585858585859b509b509b509b509b509b5050505050505091939550919395565b6060600080600060606000808767ffffffffffffffff1667ffffffffffffffff1681526020019081526020016000206000018054600181600116156101000203166002900480601f0160208091040260200160405190810160405280929190818152602001828054600181600116156101000203166002900480156123915780601f1061236657610100808354040283529160200191612391565b820191906000526020600020905b81548152906001019060200180831161237457829003601f168201915b5050505050905060008060008867ffffffffffffffff1667ffffffffffffffff16815260200190815260200160002060020160009054906101000a900460ff16905060008060008967ffffffffffffffff1667ffffffffffffffff16815260200190815260200160002060020160019054906101000a900473ffffffffffffffffffffffffffffffffffffffff16905060008060008a67ffffffffffffffff1667ffffffffffffffff16815260200190815260200160002060030160009054906101000a900473ffffffffffffffffffffffffffffffffffffffff169050838383839750975097509750505050509193509193565b60026000808767ffffffffffffffff1667ffffffffffffffff16815260200190815260200160002060020160009054906101000a900460ff1660ff16146124cc57600080fd5b600033905060008060008867ffffffffffffffff1667ffffffffffffffff16815260200190815260200160002060020160019054906101000a900473ffffffffffffffffffffffffffffffffffffffff16905060606000808967ffffffffffffffff1667ffffffffffffffff1681526020019081526020016000206001018054600181600116156101000203166002900480601f0160208091040260200160405190810160405280929190818152602001828054600181600116156101000203166002900480156125de5780601f106125b3576101008083540402835291602001916125de565b820191906000526020600020905b8154815290600101906020018083116125c157829003601f168201915b505050505090508173ffffffffffffffffffffffffffffffffffffffff168373ffffffffffffffffffffffffffffffffffffffff161461261d57600080fd5b6009600160008a67ffffffffffffffff1667ffffffffffffffff16815260200190815260200160002060000160086101000a81548160ff021916908360ff16021790555060026040518060e001604052808a67ffffffffffffffff168152602001600960ff168152602001838152602001896fffffffffffffffffffffffffffffffff168152602001886fffffffffffffffffffffffffffffffff168152602001876fffffffffffffffffffffffffffffffff168152602001868152509080600181540180825580915050906001820390600052602060002090600502016000909192909190915060008201518160000160006101000a81548167ffffffffffffffff021916908367ffffffffffffffff16021790555060208201518160000160086101000a81548160ff021916908360ff1602179055506040820151816001019080519060200190612771929190612e9c565b5060608201518160020160006101000a8154816fffffffffffffffffffffffffffffffff02191690836fffffffffffffffffffffffffffffffff16021790555060808201518160020160106101000a8154816fffffffffffffffffffffffffffffffff02191690836fffffffffffffffffffffffffffffffff16021790555060a08201518160030160006101000a8154816fffffffffffffffffffffffffffffffff02191690836fffffffffffffffffffffffffffffffff16021790555060c082015181600401908051906020019061284b929190612e9c565b505050505050505050505050565b60026000808767ffffffffffffffff1667ffffffffffffffff16815260200190815260200160002060020160009054906101000a900460ff1660ff161461289f57600080fd5b600033905060008060008867ffffffffffffffff1667ffffffffffffffff16815260200190815260200160002060030160009054906101000a900473ffffffffffffffffffffffffffffffffffffffff16905060606000808967ffffffffffffffff1667ffffffffffffffff1681526020019081526020016000206001018054600181600116156101000203166002900480601f0160208091040260200160405190810160405280929190818152602001828054600181600116156101000203166002900480156129b15780601f10612986576101008083540402835291602001916129b1565b820191906000526020600020905b81548152906001019060200180831161299457829003601f168201915b505050505090508173ffffffffffffffffffffffffffffffffffffffff168373ffffffffffffffffffffffffffffffffffffffff16146129f057600080fd5b6003600160008a67ffffffffffffffff1667ffffffffffffffff16815260200190815260200160002060000160086101000a81548160ff021916908360ff16021790555060026040518060e001604052808a67ffffffffffffffff168152602001600360ff168152602001838152602001896fffffffffffffffffffffffffffffffff168152602001886fffffffffffffffffffffffffffffffff168152602001876fffffffffffffffffffffffffffffffff168152602001868152509080600181540180825580915050906001820390600052602060002090600502016000909192909190915060008201518160000160006101000a81548167ffffffffffffffff021916908367ffffffffffffffff16021790555060208201518160000160086101000a81548160ff021916908360ff1602179055506040820151816001019080519060200190612b44929190612e9c565b5060608201518160020160006101000a8154816fffffffffffffffffffffffffffffffff02191690836fffffffffffffffffffffffffffffffff16021790555060808201518160020160106101000a8154816fffffffffffffffffffffffffffffffff02191690836fffffffffffffffffffffffffffffffff16021790555060a08201518160030160006101000a8154816fffffffffffffffffffffffffffffffff02191690836fffffffffffffffffffffffffffffffff16021790555060c0820151816004019080519060200190612c1e929190612e9c565b505050505050505050505050565b6000339050806000808467ffffffffffffffff1667ffffffffffffffff16815260200190815260200160002060020160016101000a81548173ffffffffffffffffffffffffffffffffffffffff021916908373ffffffffffffffffffffffffffffffffffffffff16021790555060026000808467ffffffffffffffff1667ffffffffffffffff16815260200190815260200160002060020160006101000a81548160ff021916908360ff1602179055505050565b60008060008367ffffffffffffffff1667ffffffffffffffff16815260200190815260200160002060030160009054906101000a900473ffffffffffffffffffffffffffffffffffffffff169050600073ffffffffffffffffffffffffffffffffffffffff168173ffffffffffffffffffffffffffffffffffffffff1614612d6757600080fd5b6000339050806000808567ffffffffffffffff1667ffffffffffffffff16815260200190815260200160002060030160006101000a81548173ffffffffffffffffffffffffffffffffffffffff021916908373ffffffffffffffffffffffffffffffffffffffff16021790555060096000808567ffffffffffffffff1667ffffffffffffffff16815260200190815260200160002060020160006101000a81548160ff021916908360ff160217905550505050565b828054600181600116156101000203166002900490600052602060002090601f016020900481019282601f10612e5d57805160ff1916838001178555612e8b565b82800160010185558215612e8b579182015b82811115612e8a578251825591602001919060010190612e6f565b5b509050612e989190612f1c565b5090565b828054600181600116156101000203166002900490600052602060002090601f016020900481019282601f10612edd57805160ff1916838001178555612f0b565b82800160010185558215612f0b579182015b82811115612f0a578251825591602001919060010190612eef565b5b509050612f189190612f1c565b5090565b612f3e91905b80821115612f3a576000816000905550600101612f22565b5090565b9056fea265627a7a723158204342d902a79bcc9821104cd9c677fb3c74314f91802fb9f7ed19d976802dec2464736f6c63430005100032",
  "source": "// SPDX-License-Identifier: MIT\npragma solidity >=0.4.22 <0.8.0;\n\n//      solidity   return   ABIEncoderV2          \n//         js  ',' split    \n// uint   int    uint  uint256 . \n//\n\ncontract subcontract {\n    struct contract_info{\n        string contract_info;   //  total \n        string total_cost;      //\n        uint8 state;            //  0:  1:  ( wallet address ) 2:    ( wallet address ) 9:  \n        address a_company;      //  \n        address b_company;      // \n    }\n    struct payment_list{\n        uint64 contract_num;    // \n        uint8 state;            //   1:   2:  3:  \n        string total_cost;      //\n        uint128 ready_made_cost;//\n        uint128 labor_cost;     //\n        uint128 exception_cost; //\n        string etc;             //  \n    }\n    \n    mapping (uint64 => contract_info) internal sub_contract;    //     mapping \n    mapping (uint64 => payment_list) internal payment_state;    //      mapping \n    \n    payment_list[] public payments;     //    \n    \n    \n    function enroll_contract (uint64 _contract_num, string memory _contract_info, string memory _total_cost) public {   //  function\n        require(sub_contract[_contract_num].state == 0);    // state 0  \n        sub_contract[_contract_num].contract_info = _contract_info; //  total  sub_contract mapping contract_info \n        sub_contract[_contract_num].total_cost = _total_cost;      //  sub_contract mapping total_cost \n    }\n    \n    function sign_contract (uint64 _contract_num) public {  //   function\n        address b_company = sub_contract[_contract_num].b_company;      \n        address signer = msg.sender;        //msg.sender contract  \n        require(b_company ==  0x0000000000000000000000000000000000000000);  //sub_contract b_company     \n        \n        sub_contract[_contract_num].b_company = signer;     //sub_contract mapping b_company contract   \n        sub_contract[_contract_num].state = 1;              //sub_contract mapping state 1 \n    }\n    \n    function refuse_contract (uint64 _contract_num) public { //    function\n        address b_company = sub_contract[_contract_num].b_company;\n        require(b_company ==  0x0000000000000000000000000000000000000000);  //sub_contract b_company     \n        address refuser = msg.sender;\n        \n        sub_contract[_contract_num].b_company = refuser;    //sub_contract mapping b_company contract   \n        sub_contract[_contract_num].state = 9;              //sub_contract mapping state 9 \n        \n    }\n    \n    function confirm_contract (uint64 _contract_num) public {   //        function\n        address confirmer = msg.sender;\n        \n        sub_contract[_contract_num].a_company = confirmer;  //sub_contract mapping a_company contract   \n        sub_contract[_contract_num].state = 2;              //sub_contract mapping state 2 \n    }\n    \n    function view_contract (uint64 _contract_num) public view returns(string memory, uint8, address, address){  //mapping  data return  view function\n        string memory contract_info_ = sub_contract[_contract_num].contract_info;\n        uint8 state = sub_contract[_contract_num].state;\n        address a_company = sub_contract[_contract_num].a_company;\n        address b_company = sub_contract[_contract_num].b_company;\n        return (contract_info_, state, a_company, b_company);   // _contract_num mapping data return\n    }\n    \n    function request_payment (uint64 _contract_num, uint128 _ready_made_cost, uint128 _labor_cost, uint128 _exception_cost, string memory _etc) public{ //   function\n        require(sub_contract[_contract_num].state == 2);    //sub_contract state 2  \n        address checker = msg.sender;\n        address b_company = sub_contract[_contract_num].b_company;\n        string memory total_cost = sub_contract[_contract_num].total_cost;\n        require(checker == b_company);      //contract  sub_contract b_company   \n        payment_state[_contract_num].contract_num = _contract_num;  //   payment_state mapping \n        payment_state[_contract_num].ready_made_cost = _ready_made_cost;    //  payment_state mapping \n        payment_state[_contract_num].labor_cost = _labor_cost;  //  payment_state mapping \n        payment_state[_contract_num].exception_cost = _exception_cost;  //  payment_state mapping \n        payment_state[_contract_num].state = 1;     //   state 1 \n        payment_state[_contract_num].etc = _etc;\n        payments.push(payment_list(_contract_num, 1, total_cost, _ready_made_cost, _labor_cost, _exception_cost, _etc));    //    payments  \n    }\n\n    function payment (uint64 _contract_num, uint128 _ready_made_cost, uint128 _labor_cost, uint128 _exception_cost, string memory _etc) public{\n        require(sub_contract[_contract_num].state == 2);\n        address checker = msg.sender;\n        address a_company = sub_contract[_contract_num].a_company;\n        string memory total_cost = sub_contract[_contract_num].total_cost;\n        require(checker == a_company);  //contract  sub_contract a_company   \n        payment_state[_contract_num].state = 2;     //   state 2 \n        payments.push(payment_list(_contract_num, 2, total_cost, _ready_made_cost, _labor_cost, _exception_cost, _etc));    //    payments  \n    }\n\n    function confirm_payment (uint64 _contract_num, uint128 _ready_made_cost, uint128 _labor_cost, uint128 _exception_cost, string memory _etc) public{\n        require(sub_contract[_contract_num].state == 2);\n        address checker = msg.sender;\n        address b_company = sub_contract[_contract_num].b_company;\n        string memory total_cost = sub_contract[_contract_num].total_cost;\n        require(checker == b_company);      //contract  sub_contract b_company   \n        payment_state[_contract_num].state = 3;     //   state 3 \n        payments.push(payment_list(_contract_num, 3, total_cost, _ready_made_cost, _labor_cost, _exception_cost, _etc));    //    payments  \n    }\n\n    function refuse_payment (uint64 _contract_num, uint128 _ready_made_cost, uint128 _labor_cost, uint128 _exception_cost, string memory _etc) public{\n        require(sub_contract[_contract_num].state == 2);\n        address checker = msg.sender;\n        address a_company = sub_contract[_contract_num].a_company;\n        string memory total_cost = sub_contract[_contract_num].total_cost;\n        require(checker == a_company);  //contract  sub_contract a_company   \n        payment_state[_contract_num].state = 9;     //   state 9 \n        payments.push(payment_list(_contract_num, 9, total_cost, _ready_made_cost, _labor_cost, _exception_cost, _etc));    //    payments  \n    }\n    \n    function view_count() public view returns(uint256){     //payments   return\n        return(payments.length);\n    }\n    \n    function view_payment(uint _index) public view returns (uint64, uint8, string memory, uint128, uint128, uint128){       //  _index payments  return ->   .\n        return(payments[_index].contract_num, payments[_index].state, payments[_index].total_cost, payments[_index].ready_made_cost, payments[_index].labor_cost, payments[_index].exception_cost);\n    }\n\n    function view_payments (uint64 _contract_num) public view returns(string memory, uint8, address, address, uint8){       //apply_list     return function\n        string memory contract_info_ = sub_contract[_contract_num].contract_info;\n        uint8 state = sub_contract[_contract_num].state;\n        address a_company = sub_contract[_contract_num].a_company;\n        address b_company = sub_contract[_contract_num].b_company;\n        uint8 p_state = payment_state[_contract_num].state;\n        return (contract_info_, state, a_company, b_company, p_state);\n    }\n    \n    function view_payment_state(uint64 _contract_num) public view returns(string memory, uint128, uint128, uint128, uint8, string memory){  //       return  function\n        string memory total_cost = payment_state[_contract_num].total_cost;\n        uint128 ready_made_cost = payment_state[_contract_num].ready_made_cost;\n        uint128 labor_cost = payment_state[_contract_num].labor_cost;\n        uint128 exception_cost = payment_state[_contract_num].exception_cost;\n        uint8 state = payment_state[_contract_num].state;\n        string memory etc = payment_state[_contract_num].etc;\n        return(total_cost, ready_made_cost, labor_cost, exception_cost, state, etc);\n    }\n        \n}",
  "sourcePath": "D://nodejs/subcontract-main/contracts/subcontract.sol",
  "compiler": {
    "name": "solc",
    "version": "0.5.16+commit.9c3226ce.Emscripten.clang"
  },
  "schemaVersion": "3.3.2",
  "updatedAt": "2020-12-07T07:49:36.721Z",
  "networkType": "ethereum",
  "devdoc": {
    "methods": {}
  },
  "userdoc": {
    "methods": {}
  }
}